{
  "_format": "hh-sol-artifact-1",
  "contractName": "SecureBank",
  "sourceName": "contracts/SecureBank.sol",
  "abi": [
    {
      "anonymous": false,
      "inputs": [
        {
          "indexed": true,
          "internalType": "address",
          "name": "sender",
          "type": "address"
        },
        {
          "indexed": false,
          "internalType": "uint256",
          "name": "amount",
          "type": "uint256"
        }
      ],
      "name": "Deposited",
      "type": "event"
    },
    {
      "anonymous": false,
      "inputs": [
        {
          "indexed": true,
          "internalType": "address",
          "name": "sender",
          "type": "address"
        },
        {
          "indexed": false,
          "internalType": "uint256",
          "name": "amount",
          "type": "uint256"
        }
      ],
      "name": "Withdrawn",
      "type": "event"
    },
    {
      "inputs": [
        {
          "internalType": "address",
          "name": "",
          "type": "address"
        }
      ],
      "name": "balances",
      "outputs": [
        {
          "internalType": "uint256",
          "name": "",
          "type": "uint256"
        }
      ],
      "stateMutability": "view",
      "type": "function"
    },
    {
      "inputs": [],
      "name": "closeAccount",
      "outputs": [],
      "stateMutability": "nonpayable",
      "type": "function"
    },
    {
      "inputs": [],
      "name": "deposit",
      "outputs": [],
      "stateMutability": "payable",
      "type": "function"
    },
    {
      "inputs": [],
      "name": "getBalance",
      "outputs": [
        {
          "internalType": "uint256",
          "name": "",
          "type": "uint256"
        }
      ],
      "stateMutability": "view",
      "type": "function"
    },
    {
      "inputs": [
        {
          "internalType": "address",
          "name": "recipient",
          "type": "address"
        },
        {
          "internalType": "uint256",
          "name": "amount",
          "type": "uint256"
        }
      ],
      "name": "transfer",
      "outputs": [],
      "stateMutability": "nonpayable",
      "type": "function"
    },
    {
      "inputs": [
        {
          "internalType": "uint256",
          "name": "amount",
          "type": "uint256"
        }
      ],
      "name": "withdraw",
      "outputs": [],
      "stateMutability": "nonpayable",
      "type": "function"
    }
  ],
  "bytecode": "0x6080604052348015600f57600080fd5b50610b5b8061001f6000396000f3fe6080604052600436106100555760003560e01c806312065fe01461005a57806327e235e3146100855780632e1a7d4d146100c25780636dd22fc6146100eb578063a9059cbb14610102578063d0e30db01461012b575b600080fd5b34801561006657600080fd5b5061006f610135565b60405161007c91906106f7565b60405180910390f35b34801561009157600080fd5b506100ac60048036038101906100a79190610775565b61017b565b6040516100b991906106f7565b60405180910390f35b3480156100ce57600080fd5b506100e960048036038101906100e491906107ce565b610193565b005b3480156100f757600080fd5b50610100610301565b005b34801561010e57600080fd5b50610129600480360381019061012491906107fb565b610415565b005b6101336105f6565b005b60008060003373ffffffffffffffffffffffffffffffffffffffff1673ffffffffffffffffffffffffffffffffffffffff16815260200190815260200160002054905090565b60006020528060005260406000206000915090505481565b806000803373ffffffffffffffffffffffffffffffffffffffff1673ffffffffffffffffffffffffffffffffffffffff168152602001908152602001600020541015610214576040517f08c379a000000000000000000000000000000000000000000000000000000000815260040161020b90610898565b60405180910390fd5b806000803373ffffffffffffffffffffffffffffffffffffffff1673ffffffffffffffffffffffffffffffffffffffff168152602001908152602001600020600082825461026291906108e7565b925050819055503373ffffffffffffffffffffffffffffffffffffffff166108fc829081150290604051600060405180830381858888f193505050501580156102af573d6000803e3d6000fd5b503373ffffffffffffffffffffffffffffffffffffffff167f7084f5476618d8e60b11ef0d7d3f06914655adb8793e28ff7f018d4c76d505d5826040516102f691906106f7565b60405180910390a250565b60008060003373ffffffffffffffffffffffffffffffffffffffff1673ffffffffffffffffffffffffffffffffffffffff16815260200190815260200160002054905060008111610387576040517f08c379a000000000000000000000000000000000000000000000000000000000815260040161037e9061098d565b60405180910390fd5b60008060003373ffffffffffffffffffffffffffffffffffffffff1673ffffffffffffffffffffffffffffffffffffffff168152602001908152602001600020819055503373ffffffffffffffffffffffffffffffffffffffff166108fc829081150290604051600060405180830381858888f19350505050158015610411573d6000803e3d6000fd5b5050565b60008111610458576040517f08c379a000000000000000000000000000000000000000000000000000000000815260040161044f906109f9565b60405180910390fd5b806000803373ffffffffffffffffffffffffffffffffffffffff1673ffffffffffffffffffffffffffffffffffffffff1681526020019081526020016000205410156104d9576040517f08c379a00000000000000000000000000000000000000000000000000000000081526004016104d090610898565b60405180910390fd5b600073ffffffffffffffffffffffffffffffffffffffff168273ffffffffffffffffffffffffffffffffffffffff1603610548576040517f08c379a000000000000000000000000000000000000000000000000000000000815260040161053f90610a65565b60405180910390fd5b806000803373ffffffffffffffffffffffffffffffffffffffff1673ffffffffffffffffffffffffffffffffffffffff168152602001908152602001600020600082825461059691906108e7565b92505081905550806000808473ffffffffffffffffffffffffffffffffffffffff1673ffffffffffffffffffffffffffffffffffffffff16815260200190815260200160002060008282546105eb9190610a85565b925050819055505050565b60003411610639576040517f08c379a000000000000000000000000000000000000000000000000000000000815260040161063090610b05565b60405180910390fd5b346000803373ffffffffffffffffffffffffffffffffffffffff1673ffffffffffffffffffffffffffffffffffffffff16815260200190815260200160002060008282546106879190610a85565b925050819055503373ffffffffffffffffffffffffffffffffffffffff167f2da466a7b24304f47e87fa2e1e5a81b9831ce54fec19055ce277ca2f39ba42c4346040516106d491906106f7565b60405180910390a2565b6000819050919050565b6106f1816106de565b82525050565b600060208201905061070c60008301846106e8565b92915050565b600080fd5b600073ffffffffffffffffffffffffffffffffffffffff82169050919050565b600061074282610717565b9050919050565b61075281610737565b811461075d57600080fd5b50565b60008135905061076f81610749565b92915050565b60006020828403121561078b5761078a610712565b5b600061079984828501610760565b91505092915050565b6107ab816106de565b81146107b657600080fd5b50565b6000813590506107c8816107a2565b92915050565b6000602082840312156107e4576107e3610712565b5b60006107f2848285016107b9565b91505092915050565b6000806040838503121561081257610811610712565b5b600061082085828601610760565b9250506020610831858286016107b9565b9150509250929050565b600082825260208201905092915050565b7f466f6e646f7320696e737566696369656e746573000000000000000000000000600082015250565b600061088260148361083b565b915061088d8261084c565b602082019050919050565b600060208201905081810360008301526108b181610875565b9050919050565b7f4e487b7100000000000000000000000000000000000000000000000000000000600052601160045260246000fd5b60006108f2826106de565b91506108fd836106de565b9250828203905081811115610915576109146108b8565b5b92915050565b7f4e6f207469656e65732073616c646f207061726120636572726172206c61206360008201527f75656e7461000000000000000000000000000000000000000000000000000000602082015250565b600061097760258361083b565b91506109828261091b565b604082019050919050565b600060208201905081810360008301526109a68161096a565b9050919050565b7f456c206d6f6e746f206465626520736572206d61796f72206120300000000000600082015250565b60006109e3601b8361083b565b91506109ee826109ad565b602082019050919050565b60006020820190508181036000830152610a12816109d6565b9050919050565b7f446972656363696f6e206e6f2076616c69646100000000000000000000000000600082015250565b6000610a4f60138361083b565b9150610a5a82610a19565b602082019050919050565b60006020820190508181036000830152610a7e81610a42565b9050919050565b6000610a90826106de565b9150610a9b836106de565b9250828201905080821115610ab357610ab26108b8565b5b92915050565b7f446562657320656e76696172204554482070617261206465706f736974617200600082015250565b6000610aef601f8361083b565b9150610afa82610ab9565b602082019050919050565b60006020820190508181036000830152610b1e81610ae2565b905091905056fea2646970667358221220621c953312ac08e21302758e3ff674157557ab9a697445b1f07c5c6fb97c0fb064736f6c634300081c0033",
  "linkReferences": {},
  "deployedLinkReferences": {}
}