{
  "_format": "hh-sol-artifact-1",
  "contractName": "SecureBank",
  "sourceName": "contracts/SecureBank.sol",
  "abi": [
    {
      "inputs": [],
      "name": "closeAccount",
      "outputs": [],
      "stateMutability": "nonpayable",
      "type": "function"
    },
    {
      "inputs": [],
      "name": "deposit",
      "outputs": [],
      "stateMutability": "payable",
      "type": "function"
    },
    {
      "inputs": [],
      "name": "getBalance",
      "outputs": [
        {
          "internalType": "uint256",
          "name": "",
          "type": "uint256"
        }
      ],
      "stateMutability": "view",
      "type": "function"
    },
    {
      "inputs": [
        {
          "internalType": "address",
          "name": "recipient",
          "type": "address"
        },
        {
          "internalType": "uint256",
          "name": "amount",
          "type": "uint256"
        }
      ],
      "name": "transfer",
      "outputs": [],
      "stateMutability": "nonpayable",
      "type": "function"
    },
    {
      "inputs": [
        {
          "internalType": "uint256",
          "name": "amount",
          "type": "uint256"
        }
      ],
      "name": "withdraw",
      "outputs": [],
      "stateMutability": "nonpayable",
      "type": "function"
    }
  ],
  "bytecode": "0x6080604052348015600f57600080fd5b50610a758061001f6000396000f3fe60806040526004361061004a5760003560e01c806312065fe01461004f5780632e1a7d4d1461007a5780636dd22fc6146100a3578063a9059cbb146100ba578063d0e30db0146100e3575b600080fd5b34801561005b57600080fd5b506100646100ed565b604051610071919061063e565b60405180910390f35b34801561008657600080fd5b506100a1600480360381019061009c919061068a565b610133565b005b3480156100af57600080fd5b506100b8610296565b005b3480156100c657600080fd5b506100e160048036038101906100dc9190610715565b6103aa565b005b6100eb61058b565b005b60008060003373ffffffffffffffffffffffffffffffffffffffff1673ffffffffffffffffffffffffffffffffffffffff16815260200190815260200160002054905090565b60008111610176576040517f08c379a000000000000000000000000000000000000000000000000000000000815260040161016d906107b2565b60405180910390fd5b806000803373ffffffffffffffffffffffffffffffffffffffff1673ffffffffffffffffffffffffffffffffffffffff1681526020019081526020016000205410156101f7576040517f08c379a00000000000000000000000000000000000000000000000000000000081526004016101ee9061081e565b60405180910390fd5b806000803373ffffffffffffffffffffffffffffffffffffffff1673ffffffffffffffffffffffffffffffffffffffff1681526020019081526020016000206000828254610245919061086d565b925050819055503373ffffffffffffffffffffffffffffffffffffffff166108fc829081150290604051600060405180830381858888f19350505050158015610292573d6000803e3d6000fd5b5050565b60008060003373ffffffffffffffffffffffffffffffffffffffff1673ffffffffffffffffffffffffffffffffffffffff1681526020019081526020016000205490506000811161031c576040517f08c379a000000000000000000000000000000000000000000000000000000000815260040161031390610913565b60405180910390fd5b60008060003373ffffffffffffffffffffffffffffffffffffffff1673ffffffffffffffffffffffffffffffffffffffff168152602001908152602001600020819055503373ffffffffffffffffffffffffffffffffffffffff166108fc829081150290604051600060405180830381858888f193505050501580156103a6573d6000803e3d6000fd5b5050565b600081116103ed576040517f08c379a00000000000000000000000000000000000000000000000000000000081526004016103e4906107b2565b60405180910390fd5b806000803373ffffffffffffffffffffffffffffffffffffffff1673ffffffffffffffffffffffffffffffffffffffff16815260200190815260200160002054101561046e576040517f08c379a00000000000000000000000000000000000000000000000000000000081526004016104659061081e565b60405180910390fd5b600073ffffffffffffffffffffffffffffffffffffffff168273ffffffffffffffffffffffffffffffffffffffff16036104dd576040517f08c379a00000000000000000000000000000000000000000000000000000000081526004016104d49061097f565b60405180910390fd5b806000803373ffffffffffffffffffffffffffffffffffffffff1673ffffffffffffffffffffffffffffffffffffffff168152602001908152602001600020600082825461052b919061086d565b92505081905550806000808473ffffffffffffffffffffffffffffffffffffffff1673ffffffffffffffffffffffffffffffffffffffff1681526020019081526020016000206000828254610580919061099f565b925050819055505050565b600034116105ce576040517f08c379a00000000000000000000000000000000000000000000000000000000081526004016105c590610a1f565b60405180910390fd5b346000803373ffffffffffffffffffffffffffffffffffffffff1673ffffffffffffffffffffffffffffffffffffffff168152602001908152602001600020600082825461061c919061099f565b92505081905550565b6000819050919050565b61063881610625565b82525050565b6000602082019050610653600083018461062f565b92915050565b600080fd5b61066781610625565b811461067257600080fd5b50565b6000813590506106848161065e565b92915050565b6000602082840312156106a05761069f610659565b5b60006106ae84828501610675565b91505092915050565b600073ffffffffffffffffffffffffffffffffffffffff82169050919050565b60006106e2826106b7565b9050919050565b6106f2816106d7565b81146106fd57600080fd5b50565b60008135905061070f816106e9565b92915050565b6000806040838503121561072c5761072b610659565b5b600061073a85828601610700565b925050602061074b85828601610675565b9150509250929050565b600082825260208201905092915050565b7f456c206d6f6e746f206465626520736572206d61796f72206120300000000000600082015250565b600061079c601b83610755565b91506107a782610766565b602082019050919050565b600060208201905081810360008301526107cb8161078f565b9050919050565b7f466f6e646f7320696e737566696369656e746573000000000000000000000000600082015250565b6000610808601483610755565b9150610813826107d2565b602082019050919050565b60006020820190508181036000830152610837816107fb565b9050919050565b7f4e487b7100000000000000000000000000000000000000000000000000000000600052601160045260246000fd5b600061087882610625565b915061088383610625565b925082820390508181111561089b5761089a61083e565b5b92915050565b7f4e6f207469656e65732073616c646f207061726120636572726172206c61206360008201527f75656e7461000000000000000000000000000000000000000000000000000000602082015250565b60006108fd602583610755565b9150610908826108a1565b604082019050919050565b6000602082019050818103600083015261092c816108f0565b9050919050565b7f446972656363696f6e206e6f2076616c69646100000000000000000000000000600082015250565b6000610969601383610755565b915061097482610933565b602082019050919050565b600060208201905081810360008301526109988161095c565b9050919050565b60006109aa82610625565b91506109b583610625565b92508282019050808211156109cd576109cc61083e565b5b92915050565b7f446562657320656e76696172204554482070617261206465706f736974617200600082015250565b6000610a09601f83610755565b9150610a14826109d3565b602082019050919050565b60006020820190508181036000830152610a38816109fc565b905091905056fea2646970667358221220162e6ad85d5c4bf7096e69230f04304d3525aa0e9ff4e418c0993307f4f9c01964736f6c634300081c0033",
  "linkReferences": {},
  "deployedLinkReferences": {}
}