{
  "_format": "hh-sol-artifact-1",
  "contractName": "SecureBank",
  "sourceName": "contracts/SecureBank.sol",
  "abi": [
    {
      "anonymous": false,
      "inputs": [
        {
          "indexed": true,
          "internalType": "address",
          "name": "sender",
          "type": "address"
        },
        {
          "indexed": false,
          "internalType": "uint256",
          "name": "amount",
          "type": "uint256"
        }
      ],
      "name": "Deposited",
      "type": "event"
    },
    {
      "anonymous": false,
      "inputs": [
        {
          "indexed": true,
          "internalType": "address",
          "name": "sender",
          "type": "address"
        },
        {
          "indexed": true,
          "internalType": "address",
          "name": "recipient",
          "type": "address"
        },
        {
          "indexed": false,
          "internalType": "uint256",
          "name": "amount",
          "type": "uint256"
        }
      ],
      "name": "Transfer",
      "type": "event"
    },
    {
      "anonymous": false,
      "inputs": [
        {
          "indexed": true,
          "internalType": "address",
          "name": "sender",
          "type": "address"
        },
        {
          "indexed": false,
          "internalType": "uint256",
          "name": "amount",
          "type": "uint256"
        }
      ],
      "name": "Withdrawn",
      "type": "event"
    },
    {
      "inputs": [
        {
          "internalType": "address",
          "name": "",
          "type": "address"
        }
      ],
      "name": "balances",
      "outputs": [
        {
          "internalType": "uint256",
          "name": "",
          "type": "uint256"
        }
      ],
      "stateMutability": "view",
      "type": "function"
    },
    {
      "inputs": [],
      "name": "closeAccount",
      "outputs": [],
      "stateMutability": "nonpayable",
      "type": "function"
    },
    {
      "inputs": [],
      "name": "deposit",
      "outputs": [],
      "stateMutability": "payable",
      "type": "function"
    },
    {
      "inputs": [],
      "name": "getBalance",
      "outputs": [
        {
          "internalType": "uint256",
          "name": "",
          "type": "uint256"
        }
      ],
      "stateMutability": "view",
      "type": "function"
    },
    {
      "inputs": [
        {
          "internalType": "address",
          "name": "recipient",
          "type": "address"
        },
        {
          "internalType": "uint256",
          "name": "amount",
          "type": "uint256"
        }
      ],
      "name": "transfer",
      "outputs": [],
      "stateMutability": "nonpayable",
      "type": "function"
    },
    {
      "inputs": [
        {
          "internalType": "uint256",
          "name": "amount",
          "type": "uint256"
        }
      ],
      "name": "withdraw",
      "outputs": [],
      "stateMutability": "nonpayable",
      "type": "function"
    }
  ],
  "bytecode": "0x6080604052348015600f57600080fd5b50610bc08061001f6000396000f3fe6080604052600436106100555760003560e01c806312065fe01461005a57806327e235e3146100855780632e1a7d4d146100c25780636dd22fc6146100eb578063a9059cbb14610102578063d0e30db01461012b575b600080fd5b34801561006657600080fd5b5061006f610135565b60405161007c919061075c565b60405180910390f35b34801561009157600080fd5b506100ac60048036038101906100a791906107da565b61017b565b6040516100b9919061075c565b60405180910390f35b3480156100ce57600080fd5b506100e960048036038101906100e49190610833565b610193565b005b3480156100f757600080fd5b50610100610301565b005b34801561010e57600080fd5b5061012960048036038101906101249190610860565b610415565b005b61013361065b565b005b60008060003373ffffffffffffffffffffffffffffffffffffffff1673ffffffffffffffffffffffffffffffffffffffff16815260200190815260200160002054905090565b60006020528060005260406000206000915090505481565b806000803373ffffffffffffffffffffffffffffffffffffffff1673ffffffffffffffffffffffffffffffffffffffff168152602001908152602001600020541015610214576040517f08c379a000000000000000000000000000000000000000000000000000000000815260040161020b906108fd565b60405180910390fd5b806000803373ffffffffffffffffffffffffffffffffffffffff1673ffffffffffffffffffffffffffffffffffffffff1681526020019081526020016000206000828254610262919061094c565b925050819055503373ffffffffffffffffffffffffffffffffffffffff166108fc829081150290604051600060405180830381858888f193505050501580156102af573d6000803e3d6000fd5b503373ffffffffffffffffffffffffffffffffffffffff167f7084f5476618d8e60b11ef0d7d3f06914655adb8793e28ff7f018d4c76d505d5826040516102f6919061075c565b60405180910390a250565b60008060003373ffffffffffffffffffffffffffffffffffffffff1673ffffffffffffffffffffffffffffffffffffffff16815260200190815260200160002054905060008111610387576040517f08c379a000000000000000000000000000000000000000000000000000000000815260040161037e906109f2565b60405180910390fd5b60008060003373ffffffffffffffffffffffffffffffffffffffff1673ffffffffffffffffffffffffffffffffffffffff168152602001908152602001600020819055503373ffffffffffffffffffffffffffffffffffffffff166108fc829081150290604051600060405180830381858888f19350505050158015610411573d6000803e3d6000fd5b5050565b60008111610458576040517f08c379a000000000000000000000000000000000000000000000000000000000815260040161044f90610a5e565b60405180910390fd5b806000803373ffffffffffffffffffffffffffffffffffffffff1673ffffffffffffffffffffffffffffffffffffffff1681526020019081526020016000205410156104d9576040517f08c379a00000000000000000000000000000000000000000000000000000000081526004016104d0906108fd565b60405180910390fd5b600073ffffffffffffffffffffffffffffffffffffffff168273ffffffffffffffffffffffffffffffffffffffff1603610548576040517f08c379a000000000000000000000000000000000000000000000000000000000815260040161053f90610aca565b60405180910390fd5b8173ffffffffffffffffffffffffffffffffffffffff163373ffffffffffffffffffffffffffffffffffffffff167fddf252ad1be2c89b69c2b068fc378daa952ba7f163c4a11628f55a4df523b3ef836040516105a5919061075c565b60405180910390a3806000803373ffffffffffffffffffffffffffffffffffffffff1673ffffffffffffffffffffffffffffffffffffffff16815260200190815260200160002060008282546105fb919061094c565b92505081905550806000808473ffffffffffffffffffffffffffffffffffffffff1673ffffffffffffffffffffffffffffffffffffffff16815260200190815260200160002060008282546106509190610aea565b925050819055505050565b6000341161069e576040517f08c379a000000000000000000000000000000000000000000000000000000000815260040161069590610b6a565b60405180910390fd5b346000803373ffffffffffffffffffffffffffffffffffffffff1673ffffffffffffffffffffffffffffffffffffffff16815260200190815260200160002060008282546106ec9190610aea565b925050819055503373ffffffffffffffffffffffffffffffffffffffff167f2da466a7b24304f47e87fa2e1e5a81b9831ce54fec19055ce277ca2f39ba42c434604051610739919061075c565b60405180910390a2565b6000819050919050565b61075681610743565b82525050565b6000602082019050610771600083018461074d565b92915050565b600080fd5b600073ffffffffffffffffffffffffffffffffffffffff82169050919050565b60006107a78261077c565b9050919050565b6107b78161079c565b81146107c257600080fd5b50565b6000813590506107d4816107ae565b92915050565b6000602082840312156107f0576107ef610777565b5b60006107fe848285016107c5565b91505092915050565b61081081610743565b811461081b57600080fd5b50565b60008135905061082d81610807565b92915050565b60006020828403121561084957610848610777565b5b60006108578482850161081e565b91505092915050565b6000806040838503121561087757610876610777565b5b6000610885858286016107c5565b92505060206108968582860161081e565b9150509250929050565b600082825260208201905092915050565b7f466f6e646f7320696e737566696369656e746573000000000000000000000000600082015250565b60006108e76014836108a0565b91506108f2826108b1565b602082019050919050565b60006020820190508181036000830152610916816108da565b9050919050565b7f4e487b7100000000000000000000000000000000000000000000000000000000600052601160045260246000fd5b600061095782610743565b915061096283610743565b925082820390508181111561097a5761097961091d565b5b92915050565b7f4e6f207469656e65732073616c646f207061726120636572726172206c61206360008201527f75656e7461000000000000000000000000000000000000000000000000000000602082015250565b60006109dc6025836108a0565b91506109e782610980565b604082019050919050565b60006020820190508181036000830152610a0b816109cf565b9050919050565b7f456c206d6f6e746f206465626520736572206d61796f72206120300000000000600082015250565b6000610a48601b836108a0565b9150610a5382610a12565b602082019050919050565b60006020820190508181036000830152610a7781610a3b565b9050919050565b7f446972656363696f6e206e6f2076616c69646100000000000000000000000000600082015250565b6000610ab46013836108a0565b9150610abf82610a7e565b602082019050919050565b60006020820190508181036000830152610ae381610aa7565b9050919050565b6000610af582610743565b9150610b0083610743565b9250828201905080821115610b1857610b1761091d565b5b92915050565b7f446562657320656e76696172204554482070617261206465706f736974617200600082015250565b6000610b54601f836108a0565b9150610b5f82610b1e565b602082019050919050565b60006020820190508181036000830152610b8381610b47565b905091905056fea2646970667358221220c2fa67d3e01f1a3ea7b1457c2fb492649232ab1dbf40667f8e2a8f894c912c5364736f6c634300081c0033",
  "linkReferences": {},
  "deployedLinkReferences": {}
}